stdin
:200000007EF9E37EF9DE7EF9F07EF9FB7EF9FD7EFA097EFBE77EFCD27EFA6F7EFA6D154393
:20002000505530314D4F4E205665722E20322E3204000000003E04202D20494E5604424578
:20004000472041444452202D2004454E442041444452202D200413202D204E4F2043484121
:200060004E474507044E4F20434F4D504152452040070413202D2043484B2053554D20459C
:200080005252070413202D204C4F4144204552520704202020425245414B202D20504F49E3
:2000A0004E54530D0A000000000452455455524E045245470449525104535749044E4D499F
:2000C0000442524B20504E5404202D2043433D04423D04413D04583D0450433D04533D04ED
:2000E0008E00FFCE00DBDF80BDFAC1CEFF6EDFB1CE0082DFB3C60EDEB1A60008DFB1DEB314
:20010000A70008DFB35A26EFCE0099C6106F00085A26FA860197957F00A97F00AACEF81F18
:20012000BDF9FBDE800886076F00084A26FA9E809F808E00FFCEF831BDF9FB7F0092D6954C
:20014000C401585858580784EF1B06CEF9928D112506EE01AD0020DACEF863BDF9FD7EF9D4
:2001600032DFB7CE0000DF977F0096BDF9DEBDF99C250ABDF9B820F3BDF9DEDFB7DEB76D9C
:2001800000270BA10027090808086D0026F50D390C392FFACB3BFB700DF98E0081302D0C19
:2001A0008139230A81412D04814623020D3980308109230280070C39780098790097780070
:2001C000987900977800987900977800987900979B98979824037C009786019796398D031E
:2001E000847F399610850127FA96117D0092260A37D610C50227FA971133398D0CA6000830
:20020000810427048DEA20F539DFB5CEF8A38DEDDEB539CEF8AA2019CEF8B12014CEF8B953
:20022000200FCEF8B5200ACEF8C12005CEF8BD2000BDF9FBCEF8C9DFB3DE8008C6038D1BF2
:20024000C6028D05CE0080C601DFB1DEB3BDF9FDDFB3DEB1BDFA6D5A26EF39DFB1DEB3BD90
:20026000F9FDDFB3DEB1BDFA6F5A26EF398D078D0586207EF9F0A600444444448D03A6007A
:2002800008840F8A30813923028B077EF9F08D0E252D36368D0830A701EE003131398D183D
:2002A000251D4848484897B18D0E25139BB197B19B94979496B10C39BDF9DE7EF99C310D62
:2002C0003986039710B6F81E971039D69796989BAAD9A9D7909791BDFA09CE0090BDFA6DD6
:2002E000DE90BDFA6FCEFAF4BDF96124037EF958EE016E002FFB1520FB070AFB075EFB0E70
:200300000DFB343BFB37008D1008DF9020C98D0909DF9020C28D0220C7DE907D0096270821
:200320009698A700A100260139DFB1CEF856BDF9FDDEB1398DE339BDF9DE814F262FBDFAA7
:2003400071D69796989091D2908001C2003630C1002606858027122008C1FF2604858026FD
:2003600008CEF837BDF9FD2003BDFA6F317EFAD7CEFB7FBDF97824037EF958EE016E0052E1
:20038000FA1847FBA753FBBB56FC2955FC6144FDCC50FC0846FCF743FD274DFD7149FD9991
:2003A0004FFC144CFE44007D009627539E8030D6979698E705A706BDFC983B7D0096273F3C
:2003C0009E80343430C607A602A700085A26F8CEFBE7DFB130D6B196B2E707A708D69796EC
:2003E00098E705A70620D03F9F80308E00FFD6979698E705A706BDFA13BDFCB97EF9328E1A
:2004000000FFBDF9587EF932DE80EE067C0096DF977EFBA77D00962705DE97DFA939863DF4
:20042000BDF9F0CE00A97EFA6D7D0096271FCE0099C603A600AA012707080808085A26F31F
:20044000D6979698E700A7016F026F0339CEF892BDF9FBCE0099C604BDFA6D08085A26F870
:20046000397D00962726CE0099C60497B1D6979698E1002604A101270A080808087A00B1A6
:2004800026EF396F006F016F026F0339CE0099C6106F00085A26FA39CE0099C604DFB7EEF7
:2004A00000270CA600DEB7A702EE00863FA700DEB7080808085A26E539CE0099C604DFB7B1
:2004C000A602EE002702A700DEB7080808085A26ED39CEF83EBDFCE7261BDFADCEF84A8D4D
:2004E000062612DFAF0C39BDF9FBCEFE72BDF961DE97810D390D399698368DD62527D6A9D1
:2005000096AA9BB0D9AF8B01C900D7AF97B0D6A996AA9BAED9ADD7AD97AE32DEADA70008E3
:200520009CAF26F93932399698368DA62541D6A996AA9BB0D9AF8B01C900D7AF97B0D6A97D
:2005400096AA9BAED9ADD7AD97AE32DEADE600112717DFB1D7B336CEF865BDF9FBCE00B126
:20056000BDFA6DBDFA6FDEB132089CAF26DF393239DE97DFB17D0096271EBDFCD22519DE70
:20058000AF08DFAFDEADA60008DFADDEB1A70008DFB1DEAD9CAF26EE397D009627079698F1
:2005A0008401979539863DBDF9F0CE00957EFA769610850127129792BDF9DE81172609BDF1
:2005C000F9DE811826F50D397F009239BDFCD224037EFE43D6AD96AE84F09BAAD9A9D7AD09
:2005E00097AED6AF96B08A0F9BAAD9A98B01C900D7AF97B0C611345A26FC8DB4253F30DF2E
:20060000B1CE00ADBDFA09BDFA6DC610DEADA600DFAD817F2204811F2202862EDEB1A70063
:2006200008DFB1DEADBDFA6F5A26E3DFADDEB18604A70030BDF9FDDEAD9CAF26BDC611311E
:200640005A26FC3986119792BDF9F0C61A345A26FC860430A700BDF9DE815326F9CEFE69D2
:20066000BDF97825F1EE016E0030FEA731FEC439FE7300BDFEEDBDFA9E7A009326117C00AA
:2006800094260CDFB1DE80D6B196B2E706A7078613BDF9F0CE00000926FD30BDF9FBC61A42
:2006A000315A26FC7EF932BDFEEDD693C11922A630BDFA9EA700087A009326F5098604A79B
:2006C000007EFE56BDFEEDBDFA9E7A00932716A700A10026030820EFCEF8562003CEF87301
:2006E000BDF9FB20B97C009426F37EFE567F0094BDFA9E250A80029793BDFA8E250139CEC0
:20070000F884BDF9FD209730EE058CFBE826037EFBE830C604D7B1E605A6068001C200CEAD
:200720000099E1002604A101270B080808087A00B126EF206030E705A7069F80CE00FFBDEF
:20074000FCB9BDFA277EF93286308C86318C86329F808E00FFCEFF64BDF9782504EE01AD50
:20076000007EF93230FA1D31FA2232FA2C00FF4BFF4BFF4BFF4BFF4BFF48FF4ECE0082206E
:200780001CCE00842017CE00862012CE0088200DCE008A2008CE008C2003CE008EE600A6C6
:2007A00001363730A604E60336A6028A10EE05063239FFFFFFFFFFFFFFFFFFFFFFFFFFFF3A
:2007C000FFFFFFFFFFFFFFFFFFFFFFFFFFFFFFFFFFFFFFFFFFFFFFFFFFFFFFFFFFFFFFFF39
:2007E000FFFFFFFFFFFFFFFFFFFFFFFFFFFFFFFFFF7CFF81FF86FF8BFF90FF07FF9AF8E0F9
:00000001FF
